{
  "_format": "hh-sol-artifact-1",
  "contractName": "Marketplace",
  "sourceName": "contracts/Marketplace.sol",
  "abi": [
    {
      "inputs": [],
      "stateMutability": "nonpayable",
      "type": "constructor"
    },
    {
      "anonymous": false,
      "inputs": [
        {
          "indexed": true,
          "internalType": "address",
          "name": "owner",
          "type": "address"
        },
        {
          "indexed": true,
          "internalType": "address",
          "name": "approved",
          "type": "address"
        },
        {
          "indexed": true,
          "internalType": "uint256",
          "name": "tokenId",
          "type": "uint256"
        }
      ],
      "name": "Approval",
      "type": "event"
    },
    {
      "anonymous": false,
      "inputs": [
        {
          "indexed": true,
          "internalType": "address",
          "name": "owner",
          "type": "address"
        },
        {
          "indexed": true,
          "internalType": "address",
          "name": "operator",
          "type": "address"
        },
        {
          "indexed": false,
          "internalType": "bool",
          "name": "approved",
          "type": "bool"
        }
      ],
      "name": "ApprovalForAll",
      "type": "event"
    },
    {
      "anonymous": false,
      "inputs": [
        {
          "indexed": true,
          "internalType": "uint256",
          "name": "tokenId",
          "type": "uint256"
        },
        {
          "indexed": false,
          "internalType": "address",
          "name": "seller",
          "type": "address"
        },
        {
          "indexed": false,
          "internalType": "address",
          "name": "owner",
          "type": "address"
        },
        {
          "indexed": false,
          "internalType": "uint256",
          "name": "price",
          "type": "uint256"
        },
        {
          "indexed": false,
          "internalType": "bool",
          "name": "sold",
          "type": "bool"
        }
      ],
      "name": "MarketItemCreated",
      "type": "event"
    },
    {
      "anonymous": false,
      "inputs": [
        {
          "indexed": true,
          "internalType": "address",
          "name": "from",
          "type": "address"
        },
        {
          "indexed": true,
          "internalType": "address",
          "name": "to",
          "type": "address"
        },
        {
          "indexed": true,
          "internalType": "uint256",
          "name": "tokenId",
          "type": "uint256"
        }
      ],
      "name": "Transfer",
      "type": "event"
    },
    {
      "inputs": [
        {
          "internalType": "address",
          "name": "to",
          "type": "address"
        },
        {
          "internalType": "uint256",
          "name": "tokenId",
          "type": "uint256"
        }
      ],
      "name": "approve",
      "outputs": [],
      "stateMutability": "nonpayable",
      "type": "function"
    },
    {
      "inputs": [
        {
          "internalType": "address",
          "name": "owner",
          "type": "address"
        }
      ],
      "name": "balanceOf",
      "outputs": [
        {
          "internalType": "uint256",
          "name": "",
          "type": "uint256"
        }
      ],
      "stateMutability": "view",
      "type": "function"
    },
    {
      "inputs": [
        {
          "internalType": "uint256",
          "name": "tokenId",
          "type": "uint256"
        }
      ],
      "name": "createMarketSale",
      "outputs": [],
      "stateMutability": "payable",
      "type": "function"
    },
    {
      "inputs": [
        {
          "internalType": "string",
          "name": "tokenURI",
          "type": "string"
        },
        {
          "internalType": "uint256",
          "name": "price",
          "type": "uint256"
        }
      ],
      "name": "createToken",
      "outputs": [
        {
          "internalType": "uint256",
          "name": "",
          "type": "uint256"
        }
      ],
      "stateMutability": "payable",
      "type": "function"
    },
    {
      "inputs": [],
      "name": "fetchItemsListed",
      "outputs": [
        {
          "components": [
            {
              "internalType": "uint256",
              "name": "tokenId",
              "type": "uint256"
            },
            {
              "internalType": "address payable",
              "name": "seller",
              "type": "address"
            },
            {
              "internalType": "address payable",
              "name": "owner",
              "type": "address"
            },
            {
              "internalType": "uint256",
              "name": "price",
              "type": "uint256"
            },
            {
              "internalType": "bool",
              "name": "sold",
              "type": "bool"
            }
          ],
          "internalType": "struct Marketplace.MarketItem[]",
          "name": "",
          "type": "tuple[]"
        }
      ],
      "stateMutability": "view",
      "type": "function"
    },
    {
      "inputs": [],
      "name": "fetchMarketItems",
      "outputs": [
        {
          "components": [
            {
              "internalType": "uint256",
              "name": "tokenId",
              "type": "uint256"
            },
            {
              "internalType": "address payable",
              "name": "seller",
              "type": "address"
            },
            {
              "internalType": "address payable",
              "name": "owner",
              "type": "address"
            },
            {
              "internalType": "uint256",
              "name": "price",
              "type": "uint256"
            },
            {
              "internalType": "bool",
              "name": "sold",
              "type": "bool"
            }
          ],
          "internalType": "struct Marketplace.MarketItem[]",
          "name": "",
          "type": "tuple[]"
        }
      ],
      "stateMutability": "view",
      "type": "function"
    },
    {
      "inputs": [],
      "name": "fetchMyNFTs",
      "outputs": [
        {
          "components": [
            {
              "internalType": "uint256",
              "name": "tokenId",
              "type": "uint256"
            },
            {
              "internalType": "address payable",
              "name": "seller",
              "type": "address"
            },
            {
              "internalType": "address payable",
              "name": "owner",
              "type": "address"
            },
            {
              "internalType": "uint256",
              "name": "price",
              "type": "uint256"
            },
            {
              "internalType": "bool",
              "name": "sold",
              "type": "bool"
            }
          ],
          "internalType": "struct Marketplace.MarketItem[]",
          "name": "",
          "type": "tuple[]"
        }
      ],
      "stateMutability": "view",
      "type": "function"
    },
    {
      "inputs": [
        {
          "internalType": "uint256",
          "name": "tokenId",
          "type": "uint256"
        }
      ],
      "name": "getApproved",
      "outputs": [
        {
          "internalType": "address",
          "name": "",
          "type": "address"
        }
      ],
      "stateMutability": "view",
      "type": "function"
    },
    {
      "inputs": [],
      "name": "getListingPrice",
      "outputs": [
        {
          "internalType": "uint256",
          "name": "",
          "type": "uint256"
        }
      ],
      "stateMutability": "view",
      "type": "function"
    },
    {
      "inputs": [
        {
          "internalType": "address",
          "name": "owner",
          "type": "address"
        },
        {
          "internalType": "address",
          "name": "operator",
          "type": "address"
        }
      ],
      "name": "isApprovedForAll",
      "outputs": [
        {
          "internalType": "bool",
          "name": "",
          "type": "bool"
        }
      ],
      "stateMutability": "view",
      "type": "function"
    },
    {
      "inputs": [],
      "name": "name",
      "outputs": [
        {
          "internalType": "string",
          "name": "",
          "type": "string"
        }
      ],
      "stateMutability": "view",
      "type": "function"
    },
    {
      "inputs": [
        {
          "internalType": "uint256",
          "name": "tokenId",
          "type": "uint256"
        }
      ],
      "name": "ownerOf",
      "outputs": [
        {
          "internalType": "address",
          "name": "",
          "type": "address"
        }
      ],
      "stateMutability": "view",
      "type": "function"
    },
    {
      "inputs": [
        {
          "internalType": "uint256",
          "name": "tokenId",
          "type": "uint256"
        },
        {
          "internalType": "uint256",
          "name": "price",
          "type": "uint256"
        }
      ],
      "name": "resellToken",
      "outputs": [],
      "stateMutability": "payable",
      "type": "function"
    },
    {
      "inputs": [
        {
          "internalType": "address",
          "name": "from",
          "type": "address"
        },
        {
          "internalType": "address",
          "name": "to",
          "type": "address"
        },
        {
          "internalType": "uint256",
          "name": "tokenId",
          "type": "uint256"
        }
      ],
      "name": "safeTransferFrom",
      "outputs": [],
      "stateMutability": "nonpayable",
      "type": "function"
    },
    {
      "inputs": [
        {
          "internalType": "address",
          "name": "from",
          "type": "address"
        },
        {
          "internalType": "address",
          "name": "to",
          "type": "address"
        },
        {
          "internalType": "uint256",
          "name": "tokenId",
          "type": "uint256"
        },
        {
          "internalType": "bytes",
          "name": "data",
          "type": "bytes"
        }
      ],
      "name": "safeTransferFrom",
      "outputs": [],
      "stateMutability": "nonpayable",
      "type": "function"
    },
    {
      "inputs": [
        {
          "internalType": "uint256",
          "name": "tokenId",
          "type": "uint256"
        },
        {
          "internalType": "address",
          "name": "buyer",
          "type": "address"
        },
        {
          "internalType": "uint256",
          "name": "price",
          "type": "uint256"
        }
      ],
      "name": "sellNFT",
      "outputs": [],
      "stateMutability": "nonpayable",
      "type": "function"
    },
    {
      "inputs": [
        {
          "internalType": "address",
          "name": "operator",
          "type": "address"
        },
        {
          "internalType": "bool",
          "name": "approved",
          "type": "bool"
        }
      ],
      "name": "setApprovalForAll",
      "outputs": [],
      "stateMutability": "nonpayable",
      "type": "function"
    },
    {
      "inputs": [
        {
          "internalType": "bytes4",
          "name": "interfaceId",
          "type": "bytes4"
        }
      ],
      "name": "supportsInterface",
      "outputs": [
        {
          "internalType": "bool",
          "name": "",
          "type": "bool"
        }
      ],
      "stateMutability": "view",
      "type": "function"
    },
    {
      "inputs": [],
      "name": "symbol",
      "outputs": [
        {
          "internalType": "string",
          "name": "",
          "type": "string"
        }
      ],
      "stateMutability": "view",
      "type": "function"
    },
    {
      "inputs": [
        {
          "internalType": "uint256",
          "name": "tokenId",
          "type": "uint256"
        }
      ],
      "name": "tokenURI",
      "outputs": [
        {
          "internalType": "string",
          "name": "",
          "type": "string"
        }
      ],
      "stateMutability": "view",
      "type": "function"
    },
    {
      "inputs": [
        {
          "internalType": "address",
          "name": "from",
          "type": "address"
        },
        {
          "internalType": "address",
          "name": "to",
          "type": "address"
        },
        {
          "internalType": "uint256",
          "name": "tokenId",
          "type": "uint256"
        }
      ],
      "name": "transferFrom",
      "outputs": [],
      "stateMutability": "nonpayable",
      "type": "function"
    },
    {
      "inputs": [
        {
          "internalType": "uint256",
          "name": "_listingPrice",
          "type": "uint256"
        }
      ],
      "name": "updateListingPrice",
      "outputs": [],
      "stateMutability": "payable",
      "type": "function"
    }
  ],
  "bytecode": "0x60806040526602e9c920b74000600b553480156200001c57600080fd5b506040518060400160405280600f81526020017f4e46542d4d61726b6574706c61636500000000000000000000000000000000008152506040518060400160405280600381526020017f4e465400000000000000000000000000000000000000000000000000000000008152508160009080519060200190620000a19291906200010c565b508060019080519060200190620000ba9291906200010c565b505050600160078190555033600a60006101000a81548173ffffffffffffffffffffffffffffffffffffffff021916908373ffffffffffffffffffffffffffffffffffffffff16021790555062000221565b8280546200011a90620001bc565b90600052602060002090601f0160209004810192826200013e57600085556200018a565b82601f106200015957805160ff19168380011785556200018a565b828001600101855582156200018a579182015b82811115620001895782518255916020019190600101906200016c565b5b5090506200019991906200019d565b5090565b5b80821115620001b85760008160009055506001016200019e565b5090565b60006002820490506001821680620001d557607f821691505b60208210811415620001ec57620001eb620001f2565b5b50919050565b7f4e487b7100000000000000000000000000000000000000000000000000000000600052602260045260246000fd5b61444280620002316000396000f3fe6080604052600436106101355760003560e01c80636352211e116100ab578063ae677aa31161006f578063ae677aa31461042d578063b88d4fde14610449578063be9af53614610472578063c87b56dd1461048e578063e219fc75146104cb578063e985e9c5146104e757610135565b80636352211e1461032f57806370a082311461036c57806372b3b620146103a957806395d89b41146103d9578063a22cb4651461040457610135565b806312e85585116100fd57806312e8558514610233578063202e37401461025e57806323b872dd1461028957806342842e0e146102b257806345f8fa80146102db578063560b5dbc1461030657610135565b806301ffc9a71461013a57806306fdde0314610177578063081812fc146101a2578063095ea7b3146101df5780630f08efe014610208575b600080fd5b34801561014657600080fd5b50610161600480360381019061015c919061305d565b610524565b60405161016e9190613763565b60405180910390f35b34801561018357600080fd5b5061018c610606565b604051610199919061377e565b60405180910390f35b3480156101ae57600080fd5b506101c960048036038101906101c49190613103565b610698565b6040516101d69190613695565b60405180910390f35b3480156101eb57600080fd5b5061020660048036038101906102019190613021565b6106de565b005b34801561021457600080fd5b5061021d6107f6565b60405161022a9190613741565b60405180910390f35b34801561023f57600080fd5b50610248610aab565b6040516102559190613a40565b60405180910390f35b34801561026a57600080fd5b50610273610ab5565b6040516102809190613741565b60405180910390f35b34801561029557600080fd5b506102b060048036038101906102ab9190612f1b565b610def565b005b3480156102be57600080fd5b506102d960048036038101906102d49190612f1b565b610e4f565b005b3480156102e757600080fd5b506102f0610e6f565b6040516102fd9190613741565b60405180910390f35b34801561031257600080fd5b5061032d6004803603810190610328919061312c565b6111a9565b005b34801561033b57600080fd5b5061035660048036038101906103519190613103565b6113eb565b6040516103639190613695565b60405180910390f35b34801561037857600080fd5b50610393600480360381019061038e9190612eb6565b61149d565b6040516103a09190613a40565b60405180910390f35b6103c360048036038101906103be91906130af565b611555565b6040516103d09190613a40565b60405180910390f35b3480156103e557600080fd5b506103ee611597565b6040516103fb919061377e565b60405180910390f35b34801561041057600080fd5b5061042b60048036038101906104269190612fe5565b611629565b005b61044760048036038101906104429190613103565b61163f565b005b34801561045557600080fd5b50610470600480360381019061046b9190612f6a565b6116d9565b005b61048c60048036038101906104879190613103565b61173b565b005b34801561049a57600080fd5b506104b560048036038101906104b09190613103565b611979565b6040516104c2919061377e565b60405180910390f35b6104e560048036038101906104e0919061317b565b611a8c565b005b3480156104f357600080fd5b5061050e60048036038101906105099190612edf565b611c81565b60405161051b9190613763565b60405180910390f35b60007f80ac58cd000000000000000000000000000000000000000000000000000000007bffffffffffffffffffffffffffffffffffffffffffffffffffffffff1916827bffffffffffffffffffffffffffffffffffffffffffffffffffffffff191614806105ef57507f5b5e139f000000000000000000000000000000000000000000000000000000007bffffffffffffffffffffffffffffffffffffffffffffffffffffffff1916827bffffffffffffffffffffffffffffffffffffffffffffffffffffffff1916145b806105ff57506105fe82611d15565b5b9050919050565b60606000805461061590613ce1565b80601f016020809104026020016040519081016040528092919081815260200182805461064190613ce1565b801561068e5780601f106106635761010080835404028352916020019161068e565b820191906000526020600020905b81548152906001019060200180831161067157829003601f168201915b5050505050905090565b60006106a382611d7f565b6004600083815260200190815260200160002060009054906101000a900473ffffffffffffffffffffffffffffffffffffffff169050919050565b60006106e9826113eb565b90508073ffffffffffffffffffffffffffffffffffffffff168373ffffffffffffffffffffffffffffffffffffffff16141561075a576040517f08c379a000000000000000000000000000000000000000000000000000000000815260040161075190613980565b60405180910390fd5b8073ffffffffffffffffffffffffffffffffffffffff16610779611dca565b73ffffffffffffffffffffffffffffffffffffffff1614806107a857506107a7816107a2611dca565b611c81565b5b6107e7576040517f08c379a00000000000000000000000000000000000000000000000000000000081526004016107de90613900565b60405180910390fd5b6107f18383611dd2565b505050565b606060006108046008611e8b565b905060006108126009611e8b565b61081c6008611e8b565b6108269190613be5565b90506000808267ffffffffffffffff81111561086b577f4e487b7100000000000000000000000000000000000000000000000000000000600052604160045260246000fd5b6040519080825280602002602001820160405280156108a457816020015b610891612c7d565b8152602001906001900390816108895790505b50905060005b84811015610aa0573073ffffffffffffffffffffffffffffffffffffffff16600c60006001846108da9190613b5e565b815260200190815260200160002060020160009054906101000a900473ffffffffffffffffffffffffffffffffffffffff1673ffffffffffffffffffffffffffffffffffffffff161415610a8d5760006001826109379190613b5e565b90506000600c60008381526020019081526020016000209050806040518060a0016040529081600082015481526020016001820160009054906101000a900473ffffffffffffffffffffffffffffffffffffffff1673ffffffffffffffffffffffffffffffffffffffff1673ffffffffffffffffffffffffffffffffffffffff1681526020016002820160009054906101000a900473ffffffffffffffffffffffffffffffffffffffff1673ffffffffffffffffffffffffffffffffffffffff1673ffffffffffffffffffffffffffffffffffffffff168152602001600382015481526020016004820160009054906101000a900460ff161515151581525050848681518110610a70577f4e487b7100000000000000000000000000000000000000000000000000000000600052603260045260246000fd5b6020026020010181905250600185610a889190613b5e565b945050505b8080610a9890613d44565b9150506108aa565b508094505050505090565b6000600b54905090565b60606000610ac36008611e8b565b905060008060005b83811015610b6c573373ffffffffffffffffffffffffffffffffffffffff16600c6000600184610afb9190613b5e565b815260200190815260200160002060020160009054906101000a900473ffffffffffffffffffffffffffffffffffffffff1673ffffffffffffffffffffffffffffffffffffffff161415610b5957600183610b569190613b5e565b92505b8080610b6490613d44565b915050610acb565b5060008267ffffffffffffffff811115610baf577f4e487b7100000000000000000000000000000000000000000000000000000000600052604160045260246000fd5b604051908082528060200260200182016040528015610be857816020015b610bd5612c7d565b815260200190600190039081610bcd5790505b50905060005b84811015610de4573373ffffffffffffffffffffffffffffffffffffffff16600c6000600184610c1e9190613b5e565b815260200190815260200160002060020160009054906101000a900473ffffffffffffffffffffffffffffffffffffffff1673ffffffffffffffffffffffffffffffffffffffff161415610dd1576000600182610c7b9190613b5e565b90506000600c60008381526020019081526020016000209050806040518060a0016040529081600082015481526020016001820160009054906101000a900473ffffffffffffffffffffffffffffffffffffffff1673ffffffffffffffffffffffffffffffffffffffff1673ffffffffffffffffffffffffffffffffffffffff1681526020016002820160009054906101000a900473ffffffffffffffffffffffffffffffffffffffff1673ffffffffffffffffffffffffffffffffffffffff1673ffffffffffffffffffffffffffffffffffffffff168152602001600382015481526020016004820160009054906101000a900460ff161515151581525050848681518110610db4577f4e487b7100000000000000000000000000000000000000000000000000000000600052603260045260246000fd5b6020026020010181905250600185610dcc9190613b5e565b945050505b8080610ddc90613d44565b915050610bee565b508094505050505090565b610e00610dfa611dca565b82611e99565b610e3f576040517f08c379a0000000000000000000000000000000000000000000000000000000008152600401610e36906139e0565b60405180910390fd5b610e4a838383611f2e565b505050565b610e6a838383604051806020016040528060008152506116d9565b505050565b60606000610e7d6008611e8b565b905060008060005b83811015610f26573373ffffffffffffffffffffffffffffffffffffffff16600c6000600184610eb59190613b5e565b815260200190815260200160002060010160009054906101000a900473ffffffffffffffffffffffffffffffffffffffff1673ffffffffffffffffffffffffffffffffffffffff161415610f1357600183610f109190613b5e565b92505b8080610f1e90613d44565b915050610e85565b5060008267ffffffffffffffff811115610f69577f4e487b7100000000000000000000000000000000000000000000000000000000600052604160045260246000fd5b604051908082528060200260200182016040528015610fa257816020015b610f8f612c7d565b815260200190600190039081610f875790505b50905060005b8481101561119e573373ffffffffffffffffffffffffffffffffffffffff16600c6000600184610fd89190613b5e565b815260200190815260200160002060010160009054906101000a900473ffffffffffffffffffffffffffffffffffffffff1673ffffffffffffffffffffffffffffffffffffffff16141561118b5760006001826110359190613b5e565b90506000600c60008381526020019081526020016000209050806040518060a0016040529081600082015481526020016001820160009054906101000a900473ffffffffffffffffffffffffffffffffffffffff1673ffffffffffffffffffffffffffffffffffffffff1673ffffffffffffffffffffffffffffffffffffffff1681526020016002820160009054906101000a900473ffffffffffffffffffffffffffffffffffffffff1673ffffffffffffffffffffffffffffffffffffffff1673ffffffffffffffffffffffffffffffffffffffff168152602001600382015481526020016004820160009054906101000a900460ff16151515158152505084868151811061116e577f4e487b7100000000000000000000000000000000000000000000000000000000600052603260045260246000fd5b60200260200101819052506001856111869190613b5e565b945050505b808061119690613d44565b915050610fa8565b508094505050505090565b6111b2836113eb565b73ffffffffffffffffffffffffffffffffffffffff163373ffffffffffffffffffffffffffffffffffffffff161461121f576040517f08c379a0000000000000000000000000000000000000000000000000000000008152600401611216906137a0565b60405180910390fd5b600061122a8361149d565b1461126a576040517f08c379a000000000000000000000000000000000000000000000000000000000815260040161126190613880565b60405180910390fd5b600081116112ad576040517f08c379a00000000000000000000000000000000000000000000000000000000081526004016112a490613a20565b60405180910390fd5b6112b8338385610e4f565b6040518060a001604052808481526020013373ffffffffffffffffffffffffffffffffffffffff1681526020018373ffffffffffffffffffffffffffffffffffffffff16815260200182815260200160011515815250600c60008581526020019081526020016000206000820151816000015560208201518160010160006101000a81548173ffffffffffffffffffffffffffffffffffffffff021916908373ffffffffffffffffffffffffffffffffffffffff16021790555060408201518160020160006101000a81548173ffffffffffffffffffffffffffffffffffffffff021916908373ffffffffffffffffffffffffffffffffffffffff1602179055506060820151816003015560808201518160040160006101000a81548160ff021916908315150217905550905050505050565b6000806002600084815260200190815260200160002060009054906101000a900473ffffffffffffffffffffffffffffffffffffffff169050600073ffffffffffffffffffffffffffffffffffffffff168173ffffffffffffffffffffffffffffffffffffffff161415611494576040517f08c379a000000000000000000000000000000000000000000000000000000000815260040161148b90613960565b60405180910390fd5b80915050919050565b60008073ffffffffffffffffffffffffffffffffffffffff168273ffffffffffffffffffffffffffffffffffffffff16141561150e576040517f08c379a0000000000000000000000000000000000000000000000000000000008152600401611505906138a0565b60405180910390fd5b600360008373ffffffffffffffffffffffffffffffffffffffff1673ffffffffffffffffffffffffffffffffffffffff168152602001908152602001600020549050919050565b60006115616008612195565b600061156d6008611e8b565b905061157933826121ab565b6115838185612385565b61158d81846123f9565b8091505092915050565b6060600180546115a690613ce1565b80601f01602080910402602001604051908101604052809291908181526020018280546115d290613ce1565b801561161f5780601f106115f45761010080835404028352916020019161161f565b820191906000526020600020905b81548152906001019060200180831161160257829003601f168201915b5050505050905090565b61163b611634611dca565b83836125fc565b5050565b3373ffffffffffffffffffffffffffffffffffffffff16600a60009054906101000a900473ffffffffffffffffffffffffffffffffffffffff1673ffffffffffffffffffffffffffffffffffffffff16146116cf576040517f08c379a00000000000000000000000000000000000000000000000000000000081526004016116c6906139c0565b60405180910390fd5b80600b8190555050565b6116ea6116e4611dca565b83611e99565b611729576040517f08c379a0000000000000000000000000000000000000000000000000000000008152600401611720906139e0565b60405180910390fd5b61173584848484612769565b50505050565b6000600c60008381526020019081526020016000206003015490506000600c600084815260200190815260200160002060010160009054906101000a900473ffffffffffffffffffffffffffffffffffffffff1690508134146117d3576040517f08c379a00000000000000000000000000000000000000000000000000000000081526004016117ca906138e0565b60405180910390fd5b33600c600085815260200190815260200160002060020160006101000a81548173ffffffffffffffffffffffffffffffffffffffff021916908373ffffffffffffffffffffffffffffffffffffffff1602179055506001600c600085815260200190815260200160002060040160006101000a81548160ff0219169083151502179055506000600c600085815260200190815260200160002060010160006101000a81548173ffffffffffffffffffffffffffffffffffffffff021916908373ffffffffffffffffffffffffffffffffffffffff1602179055506118b76009612195565b6118c2303385611f2e565b600a60009054906101000a900473ffffffffffffffffffffffffffffffffffffffff1673ffffffffffffffffffffffffffffffffffffffff166108fc600b549081150290604051600060405180830381858888f1935050505015801561192c573d6000803e3d6000fd5b508073ffffffffffffffffffffffffffffffffffffffff166108fc349081150290604051600060405180830381858888f19350505050158015611973573d6000803e3d6000fd5b50505050565b606061198482611d7f565b60006006600084815260200190815260200160002080546119a490613ce1565b80601f01602080910402602001604051908101604052809291908181526020018280546119d090613ce1565b8015611a1d5780601f106119f257610100808354040283529160200191611a1d565b820191906000526020600020905b815481529060010190602001808311611a0057829003601f168201915b505050505090506000611a2e6127c5565b9050600081511415611a44578192505050611a87565b600082511115611a79578082604051602001611a61929190613671565b60405160208183030381529060405292505050611a87565b611a82846127dc565b925050505b919050565b3373ffffffffffffffffffffffffffffffffffffffff16600c600084815260200190815260200160002060020160009054906101000a900473ffffffffffffffffffffffffffffffffffffffff1673ffffffffffffffffffffffffffffffffffffffff1614611b30576040517f08c379a0000000000000000000000000000000000000000000000000000000008152600401611b2790613940565b60405180910390fd5b600b543414611b74576040517f08c379a0000000000000000000000000000000000000000000000000000000008152600401611b6b906139a0565b60405180910390fd5b6000600c600084815260200190815260200160002060040160006101000a81548160ff02191690831515021790555080600c60008481526020019081526020016000206003018190555033600c600084815260200190815260200160002060010160006101000a81548173ffffffffffffffffffffffffffffffffffffffff021916908373ffffffffffffffffffffffffffffffffffffffff16021790555030600c600084815260200190815260200160002060020160006101000a81548173ffffffffffffffffffffffffffffffffffffffff021916908373ffffffffffffffffffffffffffffffffffffffff160217905550611c726009612844565b611c7d333084611f2e565b5050565b6000600560008473ffffffffffffffffffffffffffffffffffffffff1673ffffffffffffffffffffffffffffffffffffffff16815260200190815260200160002060008373ffffffffffffffffffffffffffffffffffffffff1673ffffffffffffffffffffffffffffffffffffffff16815260200190815260200160002060009054906101000a900460ff16905092915050565b60007f01ffc9a7000000000000000000000000000000000000000000000000000000007bffffffffffffffffffffffffffffffffffffffffffffffffffffffff1916827bffffffffffffffffffffffffffffffffffffffffffffffffffffffff1916149050919050565b611d88816128a0565b611dc7576040517f08c379a0000000000000000000000000000000000000000000000000000000008152600401611dbe90613960565b60405180910390fd5b50565b600033905090565b816004600083815260200190815260200160002060006101000a81548173ffffffffffffffffffffffffffffffffffffffff021916908373ffffffffffffffffffffffffffffffffffffffff160217905550808273ffffffffffffffffffffffffffffffffffffffff16611e45836113eb565b73ffffffffffffffffffffffffffffffffffffffff167f8c5be1e5ebec7d5bd14f71427d1e84f3dd0314c0f7b2291e5b200ac8c7c3b92560405160405180910390a45050565b600081600001549050919050565b600080611ea5836113eb565b90508073ffffffffffffffffffffffffffffffffffffffff168473ffffffffffffffffffffffffffffffffffffffff161480611ee75750611ee68185611c81565b5b80611f2557508373ffffffffffffffffffffffffffffffffffffffff16611f0d84610698565b73ffffffffffffffffffffffffffffffffffffffff16145b91505092915050565b8273ffffffffffffffffffffffffffffffffffffffff16611f4e826113eb565b73ffffffffffffffffffffffffffffffffffffffff1614611fa4576040517f08c379a0000000000000000000000000000000000000000000000000000000008152600401611f9b90613800565b60405180910390fd5b600073ffffffffffffffffffffffffffffffffffffffff168273ffffffffffffffffffffffffffffffffffffffff161415612014576040517f08c379a000000000000000000000000000000000000000000000000000000000815260040161200b90613840565b60405180910390fd5b61201f83838361290c565b61202a600082611dd2565b6001600360008573ffffffffffffffffffffffffffffffffffffffff1673ffffffffffffffffffffffffffffffffffffffff168152602001908152602001600020600082825461207a9190613be5565b925050819055506001600360008473ffffffffffffffffffffffffffffffffffffffff1673ffffffffffffffffffffffffffffffffffffffff16815260200190815260200160002060008282546120d19190613b5e565b92505081905550816002600083815260200190815260200160002060006101000a81548173ffffffffffffffffffffffffffffffffffffffff021916908373ffffffffffffffffffffffffffffffffffffffff160217905550808273ffffffffffffffffffffffffffffffffffffffff168473ffffffffffffffffffffffffffffffffffffffff167fddf252ad1be2c89b69c2b068fc378daa952ba7f163c4a11628f55a4df523b3ef60405160405180910390a4612190838383612911565b505050565b6001816000016000828254019250508190555050565b600073ffffffffffffffffffffffffffffffffffffffff168273ffffffffffffffffffffffffffffffffffffffff16141561221b576040517f08c379a000000000000000000000000000000000000000000000000000000000815260040161221290613920565b60405180910390fd5b612224816128a0565b15612264576040517f08c379a000000000000000000000000000000000000000000000000000000000815260040161225b90613820565b60405180910390fd5b6122706000838361290c565b6001600360008473ffffffffffffffffffffffffffffffffffffffff1673ffffffffffffffffffffffffffffffffffffffff16815260200190815260200160002060008282546122c09190613b5e565b92505081905550816002600083815260200190815260200160002060006101000a81548173ffffffffffffffffffffffffffffffffffffffff021916908373ffffffffffffffffffffffffffffffffffffffff160217905550808273ffffffffffffffffffffffffffffffffffffffff16600073ffffffffffffffffffffffffffffffffffffffff167fddf252ad1be2c89b69c2b068fc378daa952ba7f163c4a11628f55a4df523b3ef60405160405180910390a461238160008383612911565b5050565b61238e826128a0565b6123cd576040517f08c379a00000000000000000000000000000000000000000000000000000000081526004016123c4906138c0565b60405180910390fd5b806006600084815260200190815260200160002090805190602001906123f4929190612cda565b505050565b6000811161243c576040517f08c379a000000000000000000000000000000000000000000000000000000000815260040161243390613a00565b60405180910390fd5b600b543414612480576040517f08c379a0000000000000000000000000000000000000000000000000000000008152600401612477906139a0565b60405180910390fd5b6040518060a001604052808381526020013373ffffffffffffffffffffffffffffffffffffffff1681526020013073ffffffffffffffffffffffffffffffffffffffff16815260200182815260200160001515815250600c60008481526020019081526020016000206000820151816000015560208201518160010160006101000a81548173ffffffffffffffffffffffffffffffffffffffff021916908373ffffffffffffffffffffffffffffffffffffffff16021790555060408201518160020160006101000a81548173ffffffffffffffffffffffffffffffffffffffff021916908373ffffffffffffffffffffffffffffffffffffffff1602179055506060820151816003015560808201518160040160006101000a81548160ff0219169083151502179055509050506125b9333084611f2e565b817fb640004f1d14576d0c209e240cad0410e0d8c0c33a09375861fbadae2588a98d33308460006040516125f094939291906136b0565b60405180910390a25050565b8173ffffffffffffffffffffffffffffffffffffffff168373ffffffffffffffffffffffffffffffffffffffff16141561266b576040517f08c379a000000000000000000000000000000000000000000000000000000000815260040161266290613860565b60405180910390fd5b80600560008573ffffffffffffffffffffffffffffffffffffffff1673ffffffffffffffffffffffffffffffffffffffff16815260200190815260200160002060008473ffffffffffffffffffffffffffffffffffffffff1673ffffffffffffffffffffffffffffffffffffffff16815260200190815260200160002060006101000a81548160ff0219169083151502179055508173ffffffffffffffffffffffffffffffffffffffff168373ffffffffffffffffffffffffffffffffffffffff167f17307eab39ab6107e8899845ad3d59bd9653f200f220920489ca2b5937696c318360405161275c9190613763565b60405180910390a3505050565b612774848484611f2e565b61278084848484612916565b6127bf576040517f08c379a00000000000000000000000000000000000000000000000000000000081526004016127b6906137e0565b60405180910390fd5b50505050565b606060405180602001604052806000815250905090565b60606127e782611d7f565b60006127f16127c5565b90506000815111612811576040518060200160405280600081525061283c565b8061281b84612aad565b60405160200161282c929190613671565b6040516020818303038152906040525b915050919050565b60008160000154905060008111612890576040517f08c379a0000000000000000000000000000000000000000000000000000000008152600401612887906137c0565b60405180910390fd5b6001810382600001819055505050565b60008073ffffffffffffffffffffffffffffffffffffffff166002600084815260200190815260200160002060009054906101000a900473ffffffffffffffffffffffffffffffffffffffff1673ffffffffffffffffffffffffffffffffffffffff1614159050919050565b505050565b505050565b60006129378473ffffffffffffffffffffffffffffffffffffffff16612c5a565b15612aa0578373ffffffffffffffffffffffffffffffffffffffff1663150b7a02612960611dca565b8786866040518563ffffffff1660e01b815260040161298294939291906136f5565b602060405180830381600087803b15801561299c57600080fd5b505af19250505080156129cd57506040513d601f19601f820116820180604052508101906129ca9190613086565b60015b612a50573d80600081146129fd576040519150601f19603f3d011682016040523d82523d6000602084013e612a02565b606091505b50600081511415612a48576040517f08c379a0000000000000000000000000000000000000000000000000000000008152600401612a3f906137e0565b60405180910390fd5b805181602001fd5b63150b7a0260e01b7bffffffffffffffffffffffffffffffffffffffffffffffffffffffff1916817bffffffffffffffffffffffffffffffffffffffffffffffffffffffff191614915050612aa5565b600190505b949350505050565b60606000821415612af5576040518060400160405280600181526020017f30000000000000000000000000000000000000000000000000000000000000008152509050612c55565b600082905060005b60008214612b27578080612b1090613d44565b915050600a82612b209190613bb4565b9150612afd565b60008167ffffffffffffffff811115612b69577f4e487b7100000000000000000000000000000000000000000000000000000000600052604160045260246000fd5b6040519080825280601f01601f191660200182016040528015612b9b5781602001600182028036833780820191505090505b5090505b60008514612c4e57600182612bb49190613be5565b9150600a85612bc39190613d8d565b6030612bcf9190613b5e565b60f81b818381518110612c0b577f4e487b7100000000000000000000000000000000000000000000000000000000600052603260045260246000fd5b60200101907effffffffffffffffffffffffffffffffffffffffffffffffffffffffffffff1916908160001a905350600a85612c479190613bb4565b9450612b9f565b8093505050505b919050565b6000808273ffffffffffffffffffffffffffffffffffffffff163b119050919050565b6040518060a0016040528060008152602001600073ffffffffffffffffffffffffffffffffffffffff168152602001600073ffffffffffffffffffffffffffffffffffffffff168152602001600081526020016000151581525090565b828054612ce690613ce1565b90600052602060002090601f016020900481019282612d085760008555612d4f565b82601f10612d2157805160ff1916838001178555612d4f565b82800160010185558215612d4f579182015b82811115612d4e578251825591602001919060010190612d33565b5b509050612d5c9190612d60565b5090565b5b80821115612d79576000816000905550600101612d61565b5090565b6000612d90612d8b84613a80565b613a5b565b905082815260208101848484011115612da857600080fd5b612db3848285613c9f565b509392505050565b6000612dce612dc984613ab1565b613a5b565b905082815260208101848484011115612de657600080fd5b612df1848285613c9f565b509392505050565b600081359050612e08816143b0565b92915050565b600081359050612e1d816143c7565b92915050565b600081359050612e32816143de565b92915050565b600081519050612e47816143de565b92915050565b600082601f830112612e5e57600080fd5b8135612e6e848260208601612d7d565b91505092915050565b600082601f830112612e8857600080fd5b8135612e98848260208601612dbb565b91505092915050565b600081359050612eb0816143f5565b92915050565b600060208284031215612ec857600080fd5b6000612ed684828501612df9565b91505092915050565b60008060408385031215612ef257600080fd5b6000612f0085828601612df9565b9250506020612f1185828601612df9565b9150509250929050565b600080600060608486031215612f3057600080fd5b6000612f3e86828701612df9565b9350506020612f4f86828701612df9565b9250506040612f6086828701612ea1565b9150509250925092565b60008060008060808587031215612f8057600080fd5b6000612f8e87828801612df9565b9450506020612f9f87828801612df9565b9350506040612fb087828801612ea1565b925050606085013567ffffffffffffffff811115612fcd57600080fd5b612fd987828801612e4d565b91505092959194509250565b60008060408385031215612ff857600080fd5b600061300685828601612df9565b925050602061301785828601612e0e565b9150509250929050565b6000806040838503121561303457600080fd5b600061304285828601612df9565b925050602061305385828601612ea1565b9150509250929050565b60006020828403121561306f57600080fd5b600061307d84828501612e23565b91505092915050565b60006020828403121561309857600080fd5b60006130a684828501612e38565b91505092915050565b600080604083850312156130c257600080fd5b600083013567ffffffffffffffff8111156130dc57600080fd5b6130e885828601612e77565b92505060206130f985828601612ea1565b9150509250929050565b60006020828403121561311557600080fd5b600061312384828501612ea1565b91505092915050565b60008060006060848603121561314157600080fd5b600061314f86828701612ea1565b935050602061316086828701612df9565b925050604061317186828701612ea1565b9150509250925092565b6000806040838503121561318e57600080fd5b600061319c85828601612ea1565b92505060206131ad85828601612ea1565b9150509250929050565b60006131c383836135eb565b60a08301905092915050565b6131d881613c2b565b82525050565b6131e781613c19565b82525050565b60006131f882613af2565b6132028185613b20565b935061320d83613ae2565b8060005b8381101561323e57815161322588826131b7565b975061323083613b13565b925050600181019050613211565b5085935050505092915050565b61325481613c3d565b82525050565b61326381613c3d565b82525050565b600061327482613afd565b61327e8185613b31565b935061328e818560208601613cae565b61329781613e7a565b840191505092915050565b60006132ad82613b08565b6132b78185613b42565b93506132c7818560208601613cae565b6132d081613e7a565b840191505092915050565b60006132e682613b08565b6132f08185613b53565b9350613300818560208601613cae565b80840191505092915050565b6000613319601f83613b42565b915061332482613e8b565b602082019050919050565b600061333c601b83613b42565b915061334782613eb4565b602082019050919050565b600061335f603283613b42565b915061336a82613edd565b604082019050919050565b6000613382602583613b42565b915061338d82613f2c565b604082019050919050565b60006133a5601c83613b42565b91506133b082613f7b565b602082019050919050565b60006133c8602483613b42565b91506133d382613fa4565b604082019050919050565b60006133eb601983613b42565b91506133f682613ff3565b602082019050919050565b600061340e601f83613b42565b91506134198261401c565b602082019050919050565b6000613431602983613b42565b915061343c82614045565b604082019050919050565b6000613454602e83613b42565b915061345f82614094565b604082019050919050565b6000613477604083613b42565b9150613482826140e3565b604082019050919050565b600061349a603e83613b42565b91506134a582614132565b604082019050919050565b60006134bd602083613b42565b91506134c882614181565b602082019050919050565b60006134e0602a83613b42565b91506134eb826141aa565b604082019050919050565b6000613503601883613b42565b915061350e826141f9565b602082019050919050565b6000613526602183613b42565b915061353182614222565b604082019050919050565b6000613549602483613b42565b915061355482614271565b604082019050919050565b600061356c603083613b42565b9150613577826142c0565b604082019050919050565b600061358f602e83613b42565b915061359a8261430f565b604082019050919050565b60006135b2601c83613b42565b91506135bd8261435e565b602082019050919050565b60006135d5601c83613b42565b91506135e082614387565b602082019050919050565b60a0820160008201516136016000850182613653565b50602082015161361460208501826131cf565b50604082015161362760408501826131cf565b50606082015161363a6060850182613653565b50608082015161364d608085018261324b565b50505050565b61365c81613c95565b82525050565b61366b81613c95565b82525050565b600061367d82856132db565b915061368982846132db565b91508190509392505050565b60006020820190506136aa60008301846131de565b92915050565b60006080820190506136c560008301876131de565b6136d260208301866131de565b6136df6040830185613662565b6136ec606083018461325a565b95945050505050565b600060808201905061370a60008301876131de565b61371760208301866131de565b6137246040830185613662565b81810360608301526137368184613269565b905095945050505050565b6000602082019050818103600083015261375b81846131ed565b905092915050565b6000602082019050613778600083018461325a565b92915050565b6000602082019050818103600083015261379881846132a2565b905092915050565b600060208201905081810360008301526137b98161330c565b9050919050565b600060208201905081810360008301526137d98161332f565b9050919050565b600060208201905081810360008301526137f981613352565b9050919050565b6000602082019050818103600083015261381981613375565b9050919050565b6000602082019050818103600083015261383981613398565b9050919050565b60006020820190508181036000830152613859816133bb565b9050919050565b60006020820190508181036000830152613879816133de565b9050919050565b6000602082019050818103600083015261389981613401565b9050919050565b600060208201905081810360008301526138b981613424565b9050919050565b600060208201905081810360008301526138d981613447565b9050919050565b600060208201905081810360008301526138f98161346a565b9050919050565b600060208201905081810360008301526139198161348d565b9050919050565b60006020820190508181036000830152613939816134b0565b9050919050565b60006020820190508181036000830152613959816134d3565b9050919050565b60006020820190508181036000830152613979816134f6565b9050919050565b6000602082019050818103600083015261399981613519565b9050919050565b600060208201905081810360008301526139b98161353c565b9050919050565b600060208201905081810360008301526139d98161355f565b9050919050565b600060208201905081810360008301526139f981613582565b9050919050565b60006020820190508181036000830152613a19816135a5565b9050919050565b60006020820190508181036000830152613a39816135c8565b9050919050565b6000602082019050613a556000830184613662565b92915050565b6000613a65613a76565b9050613a718282613d13565b919050565b6000604051905090565b600067ffffffffffffffff821115613a9b57613a9a613e4b565b5b613aa482613e7a565b9050602081019050919050565b600067ffffffffffffffff821115613acc57613acb613e4b565b5b613ad582613e7a565b9050602081019050919050565b6000819050602082019050919050565b600081519050919050565b600081519050919050565b600081519050919050565b6000602082019050919050565b600082825260208201905092915050565b600082825260208201905092915050565b600082825260208201905092915050565b600081905092915050565b6000613b6982613c95565b9150613b7483613c95565b9250827fffffffffffffffffffffffffffffffffffffffffffffffffffffffffffffffff03821115613ba957613ba8613dbe565b5b828201905092915050565b6000613bbf82613c95565b9150613bca83613c95565b925082613bda57613bd9613ded565b5b828204905092915050565b6000613bf082613c95565b9150613bfb83613c95565b925082821015613c0e57613c0d613dbe565b5b828203905092915050565b6000613c2482613c75565b9050919050565b6000613c3682613c75565b9050919050565b60008115159050919050565b60007fffffffff0000000000000000000000000000000000000000000000000000000082169050919050565b600073ffffffffffffffffffffffffffffffffffffffff82169050919050565b6000819050919050565b82818337600083830152505050565b60005b83811015613ccc578082015181840152602081019050613cb1565b83811115613cdb576000848401525b50505050565b60006002820490506001821680613cf957607f821691505b60208210811415613d0d57613d0c613e1c565b5b50919050565b613d1c82613e7a565b810181811067ffffffffffffffff82111715613d3b57613d3a613e4b565b5b80604052505050565b6000613d4f82613c95565b91507fffffffffffffffffffffffffffffffffffffffffffffffffffffffffffffffff821415613d8257613d81613dbe565b5b600182019050919050565b6000613d9882613c95565b9150613da383613c95565b925082613db357613db2613ded565b5b828206905092915050565b7f4e487b7100000000000000000000000000000000000000000000000000000000600052601160045260246000fd5b7f4e487b7100000000000000000000000000000000000000000000000000000000600052601260045260246000fd5b7f4e487b7100000000000000000000000000000000000000000000000000000000600052602260045260246000fd5b7f4e487b7100000000000000000000000000000000000000000000000000000000600052604160045260246000fd5b6000601f19601f8301169050919050565b7f4f6e6c7920746865206f776e65722063616e2073656c6c20746865204e465400600082015250565b7f436f756e7465723a2064656372656d656e74206f766572666c6f770000000000600082015250565b7f4552433732313a207472616e7366657220746f206e6f6e20455243373231526560008201527f63656976657220696d706c656d656e7465720000000000000000000000000000602082015250565b7f4552433732313a207472616e736665722066726f6d20696e636f72726563742060008201527f6f776e6572000000000000000000000000000000000000000000000000000000602082015250565b7f4552433732313a20746f6b656e20616c7265616479206d696e74656400000000600082015250565b7f4552433732313a207472616e7366657220746f20746865207a65726f2061646460008201527f7265737300000000000000000000000000000000000000000000000000000000602082015250565b7f4552433732313a20617070726f766520746f2063616c6c657200000000000000600082015250565b7f42757965722063616e6e6f7420616c7265616479206f776e20616e204e465400600082015250565b7f4552433732313a2061646472657373207a65726f206973206e6f74206120766160008201527f6c6964206f776e65720000000000000000000000000000000000000000000000602082015250565b7f45524337323155524953746f726167653a2055524920736574206f66206e6f6e60008201527f6578697374656e7420746f6b656e000000000000000000000000000000000000602082015250565b7f506c65617365207375626d6974207468652061736b696e67207072696365206960008201527f6e206f7264657220746f20636f6d706c65746520746865207075726368617365602082015250565b7f4552433732313a20617070726f76652063616c6c6572206973206e6f7420746f60008201527f6b656e206f776e6572206e6f7220617070726f76656420666f7220616c6c0000602082015250565b7f4552433732313a206d696e7420746f20746865207a65726f2061646472657373600082015250565b7f4f6e6c79206974656d206f776e65722063616e20706572666f726d207468697360008201527f206f7065726174696f6e00000000000000000000000000000000000000000000602082015250565b7f4552433732313a20696e76616c696420746f6b656e2049440000000000000000600082015250565b7f4552433732313a20617070726f76616c20746f2063757272656e74206f776e6560008201527f7200000000000000000000000000000000000000000000000000000000000000602082015250565b7f5072696365206d75737420626520657175616c20746f206c697374696e67207060008201527f7269636500000000000000000000000000000000000000000000000000000000602082015250565b7f4f6e6c79206d61726b6574706c616365206f776e65722063616e20757064617460008201527f65206c697374696e672070726963652e00000000000000000000000000000000602082015250565b7f4552433732313a2063616c6c6572206973206e6f7420746f6b656e206f776e6560008201527f72206e6f7220617070726f766564000000000000000000000000000000000000602082015250565b7f5072696365206d757374206265206174206c6561737420312077656900000000600082015250565b7f5072696365206d7573742062652067726561746572207468616e203000000000600082015250565b6143b981613c19565b81146143c457600080fd5b50565b6143d081613c3d565b81146143db57600080fd5b50565b6143e781613c49565b81146143f257600080fd5b50565b6143fe81613c95565b811461440957600080fd5b5056fea26469706673582212207404321e3325bee580d94e66946ff1a7cc8d30ae700a235f79782ee07d919c7164736f6c63430008040033",
  "linkReferences": {},
  "deployedLinkReferences": {}
}